:020000040800F2
:100000000004002047010008E1020008E3020008A4
:10001000E7020008EB020008EF0200080000000001
:10002000000000000000000000000000F3020008D3
:10003000F502000800000000F7020008F9020008BD
:1000400067010008670100086701000867010008F0
:1000500067010008670100086701000867010008E0
:1000600067010008670100086701000867010008D0
:1000700067010008670100086701000867010008C0
:1000800067010008670100086701000867010008B0
:1000900067010008670100086701000867010008A0
:1000A0006701000867010008670100086701000890
:1000B00003030008670100086701000867010008E2
:1000C0006701000867010008670100086701000870
:1000D00067010008FB0200086701000867010008CB
:1000E0006701000867010008670100086701000850
:1000F0006701000867010008670100086701000840
:10010000670100086701000867010008670100082F
:10011000670100086701000867010008670100081F
:10012000670100086701000867010008670100080F
:10013000DFF80CD003F0B8F800480047C101000810
:1001400018040020704708488047084981F3088850
:1001500007480047FEE7FEE7FEE7FEE7FEE7FEE7AB
:10016000FEE7FEE7FEE7FEE7450100081804002071
:100170003101000808B54FF01C008DF800004FF069
:1001800000008DF801004FF001008DF802008DF89D
:100190000300684601F042FD4FF025008DF8000095
:1001A0004FF000008DF801004FF002008DF80200C2
:1001B0004FF001008DF80300684601F02FFD08BDE7
:1001C00008B501F010FE4FF4C06001F021FDFFF70B
:1001D000D1FF00204FF4165302460121009002F097
:1001E00045FD02F015FE00BF02F03DFEFCE72DE9E3
:1001F000F04105460E4617464FF00004334800789C
:1002000020B90221324800F0A6F903E0022130486B
:1002100000F0A3F92D48007880F001002B49087008
:100220002046BDE8F0812DE9F04105460E4617460F
:1002300098464FF000042748007820B9042124484C
:1002400000F089F903E00421214800F086F92148F3
:10025000007880F001001F4908702046BDE8F08159
:100260002DE9F04104460D4616461F461A4800780F
:1002700020B90821164800F06EF903E0082114485F
:1002800000F06BF91448007880F001001249087002
:100290004FF00100BDE8F08170B504460D461646EA
:1002A0000E48007820B91021094800F054F903E005
:1002B0001021074800F051F90848007880F001004B
:1002C000064908704FF0010070BD000000000020DA
:1002D0000010014001000020020000200300002067
:1002E000704700BFFEE700BFFEE700BFFEE700BFAC
:1002F000FEE7704770477047704710B502F05AFF2D
:1003000010BD10B502F0B7FF10BD000010B50446D7
:10031000D949A4EB01008C422FD009DCD748201822
:1003200010D0B0F5806F16D0B0F5006F4AD11BE049
:10033000B0F5806F2AD0B0F5006F30D0B0F5406FC7
:1003400040D135E00121042000F051FB00210420C0
:1003500000F04DFB37E00121082000F048FB0021B0
:10036000082000F044FB2EE00121102000F03FFBAC
:100370000021102000F03BFB25E00121202000F0AF
:1003800036FB0021202000F032FB1CE00121402040
:1003900000F02DFB0021402000F029FB13E001219B
:1003A000802000F024FB0021802000F020FB0AE0E8
:1003B0000121080200F01BFB00214FF4807000F0C7
:1003C00016FB00E000BF00BF10BD10B501210846BC
:1003D00000F00DFB0021012000F009FB10BD2DE90C
:1003E000F04102464FF000052E46284603460446DB
:1003F000074691F803C00CF00F0591F803C01CF0FC
:10040000100F03D091F802C04CEA0505B1F800C006
:100410001CF0FF0F35D014684FF000002EE04FF0B5
:10042000010C0CFA00F3B1F800C00CEA03069E427E
:1004300022D14FEA80034FF00F0C0CFA03F724EAA5
:10044000070405FA03FC4CEA040491F803C0BCF16C
:10045000280F06D14FF0010C0CFA00FCC2F814C0B2
:100460000AE091F803C0BCF1480F05D14FF0010C30
:100470000CFA00FCC2F810C000F101000828CED32D
:100480001460B1F800C0BCF1FF0F38DD54684FF0C4
:10049000000031E000F1080C4FF0010808FA0CF3FD
:1004A000B1F800C00CEA03069E4223D14FEA800354
:1004B0004FF00F0C0CFA03F724EA070405FA03FCCB
:1004C0004CEA040491F803C0BCF1280F05D100F1F7
:1004D000080C08FA0CF8C2F8148091F803C0BCF1BB
:1004E000480F07D100F1080C4FF0010808FA0CF88A
:1004F000C2F8108000F101000828CBD35460BDE899
:10050000F0814FF6FF7101804FF0020181704FF0D2
:100510000401C170704702464FF0000093680B421F
:1005200002D04FF0010001E04FF00000704701469B
:10053000886880B2704702464FF00000D3680B42D3
:1005400002D04FF0010001E04FF00000704701467B
:10055000C86880B2704701617047416170470AB155
:10056000016100E041617047C16070474FF4803223
:1005700042EA010282618161826182698269704717
:1005800002464FF000003E4B18684FF6807300EAB9
:10059000030040EA021040EA0100394B186070473E
:1005A0003849C8617047F0B50A464FF000031C4651
:1005B00019460D46324E7168C0F3034583B200F40C
:1005C0004016B6F5401F08D121F070612C4E7668B8
:1005D00026F070662A4F7E6017E000F48016B6F5AC
:1005E000801F08D14FF0030606FA05F421EA040142
:1005F00041F0706109E04FEA50564FEA061603FADF
:1006000006F621EA060141F070613AB14FEA505610
:100610004FEA061603FA06F646EA0101184E716023
:10062000F0BD30B54FF000024FEA81734FEA13740A
:100630004FF00F0303FA04F2134B4FEAA10453F8EF
:10064000243023EA0203104C4FEAA10544F8253078
:1006500023464FEAA10453F824304FEA81744FEA4D
:10066000147400FA04F443EA0403074C4FEAA105AA
:1006700044F8253030BD00000014014000F8FEBFF2
:10068000000001400000204208000140F7480068D7
:1006900040F00100F549086008464068F44900EA66
:1006A0000100F249486008460068F24900EA01008A
:1006B000EE4908600846006820F48020086008467B
:1006C000406820F4FE0048604FF0000088607047EA
:1006D000E649096821F48031E44A1160114609684D
:1006E00021F480211160B0F5803F03D0B0F5802F58
:1006F0000ED106E0DD49096841F48031DB4A116022
:1007000007E0DA49096841F4A021D84A116000E005
:1007100000BF00BF704710B501464FF000021346FE
:1007200010464FEA6112012A02D1D04C236806E03C
:10073000022A02D1CD4C236A01E0CC4C636A01F05D
:100740001F024FF0010404FA02F41C4202D04FF0E1
:10075000010001E04FF0000010BD70B54FF0000443
:100760002546264600BF3120FFF7D5FF064604F197
:10077000010416B9B4F5A06FF5D13120FFF7CBFF16
:1007800010B14FF0010501E04FF00005284670BDA3
:1007900001464FF00000B54A106820F0F80040EA2A
:1007A000C10010607047B4490860704702464FF0BE
:1007B0000000AE4B586820F47C1042EA010343EA83
:1007C0000000AA4B58607047AB4908667047014665
:1007D0004FF00000A54A506820F0030040EA0100F5
:1007E00050607047A148406800F00C007047014617
:1007F0004FF000009D4A506820F0F00040EA0100F0
:100800005060704701464FF00000984A506820F44D
:10081000E06040EA01005060704701464FF0000080
:10082000924A506820F4605040EAC100506070471E
:1008300031B18E4A527A42EA00028C4B5A7208E079
:100840008A4A527A6FEA0003DBB202EA0302874B5C
:100850005A72704789490860704701464FF000009E
:10086000824A506820F4404040EA010050607047DE
:100870004FF00001824A11707C4A82F82010012852
:1008800002D004280AD104E04FF001017C4A117023
:1008900005E04FF005017A4A117000E000BF00BF8B
:1008A00070477849086070477049096A41EA000159
:1008B0006E4A1162704774490860704730B54FF056
:1008C00000010A460C460B46684D6D6805F00C01A8
:1008D00021B1042905D0082927D105E06B4D056019
:1008E00026E06A4D056023E0604D6D6805F47012E6
:1008F0004FF0020505EB92425C4D6D6805F48034C3
:1009000024B9634D02FB05F505600DE0574D6D6898
:1009100015F4003F04D05E4D02FB05F5056003E0D1
:100920005A4D02FB05F5056002E0584D056000BF19
:1009300000BF4E4D6D6805F0F0014FEA1111554DA5
:100940006B5C056825FA03F54560484D6D6805F454
:10095000E0614FEA11214F4D6B5C456825FA03F5C4
:100960008560424D6D6805F460514FEAD121494DD3
:100970006B5C456825FA03F5C5603C4D6D6805F470
:1009800040414FEA9131444D6B5CC568B5FBF3F5CE
:10099000056130BD31B1354A526942EA0002334B3C
:1009A0005A6105E0314A526922EA00022F4B5A612E
:1009B000704731B12D4A926942EA00022B4B9A618D
:1009C00005E02A4A926922EA0002284B9A617047A0
:1009D00031B1264AD26942EA0002244BDA6105E0CD
:1009E000224AD26922EA0002204BDA61704731B113
:1009F0001E4AD26842EA00021C4BDA6005E01B4A3C
:100A0000D26822EA0002194BDA60704731B1174A06
:100A1000126942EA0002154B1A6105E0134A126995
:100A200022EA0002114B1A6170471C4908607047A6
:100A30001149C86470470D49C87170470B48406A36
:100A400040F0807009494862704701464FF000004D
:100A5000064A92680A4202D04FF0010001E04FF0CE
:100A60000000704701498872704700000010024082
:100A70000000FFF8FFFFF6FE00004242D8004242AD
:100A800020100240800442423C04424200127A009C
:100A900000093D00040000201400002040044242F0
:100AA00010B50446F849A4EB01008C4245D00CDC9B
:100AB000B4F1804F1DD0F548201823D0B0F5806FD9
:100AC00029D0B0F5006F54D12EE0B0F5806F3DD045
:100AD000B0F58E3F03D0B0F5923F4AD13FE00121FF
:100AE000C802FFF784FF00214FF40060FFF77FFF8B
:100AF00040E001210846FFF789FF00210120FFF7B0
:100B000085FF37E001210220FFF780FF002102204E
:100B1000FFF77CFF2EE001210420FFF777FF002183
:100B20000420FFF773FF25E001210820FFF76EFF87
:100B300000210820FFF76AFF1CE001211020FFF7C9
:100B400065FF00211020FFF761FF13E00121202045
:100B5000FFF75CFF00212020FFF758FF0AE001218A
:100B60004803FFF744FF00214FF40050FFF73FFF19
:100B700000E000BF00BF10BD028802F08F020280BB
:100B8000CA884B8842EA0302038842EA03020280D1
:100B90008A8882850A880285BD4A904202D0BD4A71
:100BA000904201D10A7A02864FF001028282704798
:100BB00070B54FF0000422461346058C4FF6FE76C2
:100BC00005EA06050584028C8388048B4FF68F7531
:100BD00004EA05040D8845EA04044FF6FD7502EAAF
:100BE00005020D8945EA02024D8845EA0202CD88D8
:100BF0008586A74DA84202D0A64DA8421BD14FF62C
:100C0000F77502EA05024D8945EA02024FF6FB75C7
:100C100002EA05028D8845EA020247F6FF6503EA0B
:100C2000050347F6FF5503EA05038D8945EA0303EB
:100C3000CD8945EA030383800483028470BD70B5C7
:100C40004FF0000422461346058C4FF6EF7605EA76
:100C500006050584028C8388048B48F6FF7504EA38
:100C600005040D884FEA056544EA15444FF6DF7523
:100C700002EA05020D894FEA055542EA15424D8800
:100C80004FEA055542EA1542CD880587804DA842B6
:100C900002D0804DA84223D14FF67F7502EA0502AB
:100CA0004D894FEA055542EA15424FF6BF7502EAF3
:100CB00005028D884FEA055542EA154247F6FF3591
:100CC00003EA050347F2FF7503EA05038D894FEA3E
:100CD000854543EA1543CD894FEA854543EA1543E7
:100CE00083800483028470BD70B54FF000042246F7
:100CF0001346058C4FF6FF6605EA06050584028C4F
:100D00008388848B4FF68F7504EA05040D8845EAC5
:100D100004044FF6FF5502EA05020D894FEA056506
:100D200042EA15424D884FEA056542EA1542CD88F0
:100D30008587574DA84202D0564DA84223D14FF285
:100D4000FF7502EA05024D894FEA056542EA154240
:100D50004FF6FF3502EA05028D884FEA056542EA43
:100D6000154246F6FF7503EA050345F6FF7503EAEB
:100D700005038D894FEA055543EA1543CD894FEAAE
:100D8000055543EA154383808483028470BD70B5A2
:100D90004FF0000422461346058C4EF6FF7605EA16
:100DA00006050584028C8388848B48F6FF7504EA67
:100DB00005040D884FEA056544EA15444DF6FF75B4
:100DC00002EA05020D894FEA057542EA15424D888F
:100DD0004FEA057542EA1542CD88A0F840502C4DE7
:100DE000A84202D02B4DA84206D1C3F30D038D8932
:100DF0004FEA855543EA154383808483028470BD9E
:100E0000828B4FF2FF3302EA03028283828B4FEA26
:100E1000016342EA134282837047F0B50C461546DF
:100E20004FF000010A460E46078C4EF6FF7C07EA9B
:100E30000C070784818B028C4FEA04774FEA174630
:100E400040F6FF4701EA07014FEA05674FEA1747F7
:100E50004FEA037C47EA1C4747EA01014DF6FF775A
:100E600002EA070246F4805747EA020281830284BD
:100E7000F0BD828B4FF6F37302EA03028283828B0A
:100E800042EA0102828370470010004000FCFFBF6D
:100E9000002C014000340140F0B50C4615464FF0DF
:100EA00000010A460E46078C4FF6FF6C07EA0C0756
:100EB0000784818B028C4FEA04674FEA17464FF68E
:100EC0000C7701EA07014FEA035745EA174747EA5B
:100ED00001014FF6FF5702EA070246F4807747EA1E
:100EE000020281830284F0BD028B4FF2FF3302EADB
:100EF00003020283028B4FEA016342EA1342028338
:100F00007047F0B50C4615464FF000010A460E46F4
:100F1000078C4FF6EF7C07EA0C070784018B028CE5
:100F20004FEA04574FEA174640F6FF4701EA070128
:100F30004FEA037741EA17414FEA056741EA174153
:100F40004FF6DF7702EA070246F0100747EA02028F
:100F500001830284F0BD028B4FF6F37302EA0302B1
:100F60000283028B42EA010202837047F0B50C460D
:100F700015464FF000010A46068C4FF6FE7706EA4A
:100F800007060684018B028C4FF60C7601EA0601F7
:100F90004FEA035645EA164646EA01014FF6FD764A
:100FA00002EA060244F0010646EA020201830284D4
:100FB000F0BD70B505460C46208850B92389A2883B
:100FC00061882846FFF7D2FFE1882846FFF7C3FF74
:100FD00025E0208804280AD12389A2886188284630
:100FE000FFF78FFFE1882846FFF77EFF17E0208894
:100FF00008280AD12389A28861882846FFF74CFF78
:10100000E1882846FFF735FF09E02389A288618837
:101010002846FFF702FFE1882846FFF7F1FE70BD82
:101020002DE9F04105460C464FF000064FF0010750
:10103000608810B94FF0020601E04FF00006A0886A
:10104000012802D14FF0020701E04FF0010720888C
:10105000A0B92389A28861882846FFF787FFE18825
:101060002846FFF778FF23893A4631462846FFF79E
:1010700048FFE1882846FFF737FF13E02389A2885D
:1010800061882846FFF73DFFE1882846FFF72CFFDF
:1010900023893A4631462846FFF768FFE18828460B
:1010A000FFF759FFBDE8F0810A884B8842EA030246
:1010B0008B8842EA0302CB8842EA03020B8942EAA8
:1010C00003024B8942EA03028B8942EA0302A0F839
:1010D000442070474FF6FF7181804FF0000101807E
:1010E000C1804180017270474FF000010180418052
:1010F0008180C180018141818181C18170474FF030
:101100000001018041804FF0010181804FF000011A
:10111000C180018170474FF00001018041808180D2
:10112000C180018141818181704721B1028842F0F3
:101130000102028005E0028840F2FE3302EA030267
:101140000280704731B1B0F8442042F40042A0F868
:10115000442005E0B0F84420C2F30E02A0F8442079
:10116000704710B522B1838943EA0103838106E009
:1011700083896FEA0104A4B203EA0403838110BDEA
:101180008182704741EA0203A0F84830704710B5E9
:1011900022B1838943EA0103838106E083896FEAF0
:1011A0000104A4B203EA0403838110BD01894FF650
:1011B000F87201EA0201018170470A464FF000010E
:1011C00001894FF68F7301EA030141EA02010181AF
:1011D000704730B504460D4629462046FFF7EDFF1F
:1011E000208940F00700208130BD2DE9F041044600
:1011F0000D4616461F46602D06D13B46012231465C
:101200002046FFF77EFE05E03B46012231462046A0
:10121000FFF7ACFE29462046FFF7CFFF208940F0BC
:1012200007002081BDE8F08170B50C464FF0000149
:101230000189C9B244EA02054FEA036645EA164548
:1012400045EA0101018170BD2DE9F04105460E46D8
:10125000174698464FF0000443463A463146284622
:10126000FFF7E2FF2C894FF6F87004EA000444F01F
:1012700007044FF68F7004EA000444F070042C81D8
:10128000BDE8F081F0B504460D4616461F463B46C4
:10129000324629462046FFF7C7FF208940F48040A8
:1012A0002081F0BD0185828270470A464FF000011F
:1012B000018840F28F3301EA030141EA0201018013
:1012C0007047F0B50C4615461E464FF000010A4621
:1012D0000B460189028B038C4FF6F87701EA070170
:1012E00041EA04014FF6FC4702EA070240F2011707
:1012F00042EA07024FF6DD7703EA07034FEA065793
:1013000045EA174747EA0303018102830384F0BDDE
:101310000A464FF00001018B4FF68F7301EA03017B
:1013200041EA0201018370470A464FF00001018B38
:1013300048F6FF7301EA03014FEA026341EA1341F1
:10134000018370470A464FF00001818B4FF68F737F
:1013500001EA030141EA0201818370470A464FF026
:101360000001818B48F6FF7301EA03014FEA026333
:1013700041EA13418183704721B1028842F0800223
:10138000028005E0028840F27F3302EA0302028015
:10139000704721B1828842F00402828005E0828891
:1013A0004FF6FB7302EA03028280704721B1828804
:1013B00042F00802828005E082884FF6F77302EA65
:1013C00003028280704721B1828842F0010282804C
:1013D00005E082884FF6FE7302EA030282807047BE
:1013E0000A464FF00001018B4FF6F77301EA030143
:1013F00041EA0201018370470A464FF00001018B68
:101400004FF2FF7301EA03014FEA026341EA13411D
:10141000018370470A464FF00001818B4FF6F77346
:1014200001EA030141EA0201818370470A464FF055
:101430000001818B4FF2FF7301EA03014FEA02635F
:1014400041EA1341818370470A464FF00001018B46
:101450004FF6FB7301EA030141EA02010183704781
:101460000A464FF00001018B4FF6FF3301EA0301FA
:101470004FEA026341EA1341018370470A464FF085
:101480000001818B4FF6FB7301EA030141EA02017F
:10149000818370470A464FF00001818B4FF6FF337E
:1014A00001EA03014FEA026341EA13418183704775
:1014B0000A464FF00001018B4FF67F7301EA0301EA
:1014C00041EA0201018370470A464FF00001018B97
:1014D000C1F30E014FEA026341EA134101837047F1
:1014E0000A464FF00001818B4FF67F7301EA03013A
:1014F00041EA0201818370470A464FF00001818B67
:10150000C1F30E014FEA026341EA13418183704740
:101510000A464FF00001018C4FF6FD7301EA03010A
:1015200041EA0201018470470A464FF00001018C34
:101530004FF6F77301EA030141EA020101847047A3
:101540000A464FF00001018C4FF6DF7301EA0301F8
:101550004FEA025341EA1341018470470A464FF0B3
:101560000001018C4FF67F7301EA03014FEA025339
:1015700041EA1341018470470A464FF00001018C93
:101580004FF6FF5301EA03014FEA026341EA1341B8
:10159000018470470A464FF00001018C4FF2FF733F
:1015A00001EA03014FEA026341EA134101847047F3
:1015B0000A464FF00001018C4DF6FF7301EA03016A
:1015C0004FEA027341EA13410184704710B5048C5D
:1015D0004FF0010303FA01F36FEA03039BB204EA3D
:1015E00003040484038C02FA01F4A4B243EA040362
:1015F000038410BD10B5048C4FF0040303FA01F30B
:101600006FEA03039BB204EA03040484038C02FA26
:1016100001F4A4B243EA0403038410BD30B5048C82
:101620004FF0010303FA01F36FEA03039BB204EAEC
:101630000304048409B108291AD100F1180303EB4B
:1016400061031B684FF68F7403EA040300F118046A
:1016500004EB6104236000F1180303EB61031B68D2
:1016600043EA020300F1180404EB6104236027E05D
:10167000A1F104039CB200F1180303EB64031B689F
:1016800048F6FF7403EA0403A1F10404A5B200F1D3
:10169000180404EB65042360A1F104039CB200F17B
:1016A000180303EB64031B684FEA026443EA144324
:1016B000A1F10404A5B200F1180404EB6504236051
:1016C00030BD21B1028842F00202028005E00288AA
:1016D00040F2FD3302EA03020280704721B1028822
:1016E00042F00402028005E0028840F2FB3302EA85
:1016F00003020280704721B1828842F0800282801A
:1017000005E082884FF67F7302EA03028280704709
:10171000028840F2F73302EA03020280028842EABA
:1017200001020280704782884FF68F7302EA03023B
:101730008280828842EA01028280704702894FF6E5
:10174000F87302EA03020281028942EA010202817D
:10175000704702894FF67F7302EA03020281028911
:1017600042EA010202817047818470478185704797
:10177000818670470187704781877047A0F84010C5
:1017800070470288D2B20280028842EA01020280D7
:1017900070470146888E70470146088F70470146A2
:1017A000888F70470146B1F8400070470146888C29
:1017B00070470146088D704702464FF00000138ABB
:1017C0000B4202D04FF0010001E04FF000007047E3
:1017D0006FEA01020282704730B502464FF0000006
:1017E00003460446158A05EA0103958905EA0104C2
:1017F0001BB114B14FF0010001E04FF0000030BD0B
:101800006FEA01020282704710B50446FD49A4EB5D
:1018100001008C422BD006DCFB48201813D0B0F519
:10182000806F38D119E0B0F5806F2AD0B0F56C4FD9
:1018300031D101218803FFF7DAF800214FF480400D
:10184000FFF7D5F828E001214804FFF7DFF8002171
:101850004FF40030FFF7DAF81EE001218804FFF7AB
:10186000D5F800214FF48020FFF7D0F814E00121D3
:10187000C804FFF7CBF800214FF40020FFF7C6F8AB
:101880000AE001210805FFF7C1F800214FF480109C
:10189000FFF7BCF800E000BF00BF10BD2DE9F04726
:1018A00086B005460E464FF00004A24600BF00BFBA
:1018B00027462F462C8A4CF6FF7004EA0004F08875
:1018C00040EA04042C82AC894EF6F31004EA0004CA
:1018D000B088318940EA0100718940EA010040EA9C
:1018E0000404AC81AC8A4FF6FF4004EA0004B089DE
:1018F00040EA0404AC8201A8FEF7E0FFC348874237
:1019000002D1DDF810A001E0DDF80CA00AEBCA005E
:1019100000EB0A1031684FEA8101B0FBF1F84FF09B
:101920006400B8FBF0F04FEA00144FEA14104FF0D7
:10193000640101FB10894FF0320000EB0910B0FB8D
:10194000F1F000F00F0040EA04042C8106B0BDE87D
:10195000F0874FF4165101604FF000018180C18083
:1019600001814FF00C0141814FF0000181817047EE
:1019700010B502464FF00000108A4FF2FF0300EA54
:1019800003000B884C8843EA04038C8843EA040371
:10199000CC8843EA040343EA0000108210BD4FF0F4
:1019A0000001018041808180C180704721B182891E
:1019B00042F40052828105E082894DF6FF7302EA0B
:1019C000030282817047F0B503464FF000042646BB
:1019D000254620461846C1F3421401F01F064FF079
:1019E000010707FA06F5012C02D100F10C0006E010
:1019F000022C02D100F1100001E000F1140022B12C
:101A0000076847EA0507076003E0076827EA050754
:101A10000760F0BD10B522B1838A43EA01038382D7
:101A200006E0838A6FEA0104A4B203EA0403838216
:101A300010BD028A4FF6F07302EA03020282028AA4
:101A400042EA01020282704782894FF2FF7302EA82
:101A500003028281828942EA01028281704721B1B8
:101A6000828942F00202828105E082894FF6FD738D
:101A700002EA030282817047028A4FF6DF7302EAAC
:101A800003020282028A42EA01020282704721B105
:101A9000028A42F48042028205E0028A4BF6FF731A
:101AA00002EA030202827047C1F308028280704793
:101AB00001468888C0F308007047818941F0010120
:101AC00081817047028BD2B20283028B42EA0122EB
:101AD00002837047028B02F47F420283028B42EA48
:101AE00001020283704721B1828A42F02002828281
:101AF00005E0828A4FF6DF7302EA030282827047B2
:101B000021B1828A42F01002828205E0828A4FF679
:101B1000EF7302EA03028282704721B1828A42F0A7
:101B20000802828205E0828A4FF6F77302EA030216
:101B300082827047828A4FF6FB7302EA0302828236
:101B4000828A42EA01028282704721B1828A42F08F
:101B50000202828205E0828A4FF6FD7302EA0302E6
:101B60008282704702464FF0000013880B4202D079
:101B70004FF0010001E04FF0000070476FEA0102F2
:101B80000280704770B502460B464FF000042146B4
:101B90000D460846C3F3421503F01F014FF001063E
:101BA00006FA01F1012D03D1968906EA010108E048
:101BB000022D03D1168A06EA010102E0968A06EA9E
:101BC00001014FEA23244FF0010606FA04F41688B7
:101BD00006EA040419B114B14FF0010001E04FF01E
:101BE000000070BD10B54FF0000213464FEA2122ED
:101BF0004FF0010404FA02F4A3B26FEA0304048074
:101C000010BD0000004C004000BCFFBF0038014088
:101C1000384940EA0101384A1160704770B54FF009
:101C200000010B464FF00F02C4784CB3324C2468CD
:101C300004F4E064C4F5E0644FEA1421C1F1040344
:101C400022FA01F2447804FA03F1847804EA0204E7
:101C500044EA01014FEA0111284C0678A1550478A5
:101C600004F01F054FF0010404FA05F405784FEA6B
:101C700065154FF0E02606EB8505C5F800410CE040
:101C8000047804F01F054FF0010404FA05F41C4D1C
:101C900006784FEA661645F8264070BD194A01EAF3
:101CA000020242EA0002184B1A60704731B1174A2B
:101CB000126842EA0002154B1A6005E0134A1268E6
:101CC00022EA0002114B1A607047042808D14FF035
:101CD000E021096941F004014FF0E022116107E0C1
:101CE0004FF0E021096921F004014FF0E022116179
:101CF000704700000000FA050CED00E000E400E091
:101D000080E100E080FFFF1F08ED00E010ED00E043
:101D10004FF000010846464A126842F48032444BB4
:101D20001A6000BF424A126802F4003001F101015A
:101D300010B9B1F5A06FF5D13D4A126812F4003F19
:101D400002D04FF0010001E04FF00000012843D124
:101D5000384A126842F01002364B1A601A4612686E
:101D600022F003021A601A46126842F002021A6058
:101D70002F4A52682E4B5A601A4652685A601A46C9
:101D8000526842F480625A601A46526822F47C1209
:101D90005A601A46526842F4E8125A601A461268AB
:101DA00042F080721A6000BF214A126812F0007F70
:101DB000FAD01F4A526822F003021D4B5A601A469D
:101DC000526842F002025A6000BF194A526802F09B
:101DD0000C02082AF9D101E000BFFEE7704710B5F8
:101DE000FFF796FF10BD10B51148006840F00100E4
:101DF0000F490860084640680F4900EA01000C4995
:101E00004860084600680D4900EA0100084908607A
:101E10000846006820F4802008600846406820F4E6
:101E2000FE0048604FF000008860FFF7D8FF10BD4B
:101E300000100240002002400000FFF8FFFFF6FE05
:101E400070B502460C464FF0FF052B4609E012F82C
:101E5000010B80EA03010748405C80EA050306485D
:101E6000455C2000A4F10106B4B2F0D143EA05209C
:101E700070BD0000EA320008EA3300082DE9F0479F
:101E800081460E4614461F464FF0000801F0DCF86C
:101E90003B4608222146304601F0FCF8012802D0DA
:101EA0004FF0030811E0B4F5964F02D94FF0230527
:101EB00004E04FEA44009949B1FBF0F5A8B201F003
:101EC00097F9012801D04FF0030801F0BBF8404614
:101ED000BDE8F08710B501F0B7F84FF00000904969
:101EE000087001464FF0010001F0B0F801F0A3F9CD
:101EF00001F0A8F810BD10B501F0A6F800210846C1
:101F000001F0A4F801F0ABF901F09CF810BD2DE947
:101F1000F04104460D4616464FF00008474601F0D2
:101F200093F880480088042814DB7E4801887E48A6
:101F3000FFF786FF70B97C480078207079480088E8
:101F4000A0F103003080784800F1010028604FF0D4
:101F5000010801E04FF0050701F074F83846BDE8CC
:101F6000F0812DE9F04105460E4617464FF0000876
:101F700001F06AF86A480078012830D1A6F1010022
:101F80006A4908604FF001006949088067480068A5
:101F90000570084600883844088008460188634870
:101FA0000068FFF74DFF04466149088800F1010110
:101FB0005F4B19805C490C544FEA2422194608886B
:101FC00000F10101198058490A544FF001005949A4
:101FD000087001464FF0000001F038F801E04FF0C2
:101FE000050801F02FF84046BDE8F08138B54FF004
:101FF0000004684601F0D1F84948007830B1012862
:102000000AD002281CD0032830D102E001F013F9D5
:102010002CE001F010F929E04FF000004149088060
:102020009DF80020088800F101013E4B19803E49CF
:102030000A544FF002003A49087001F0FCF815E02C
:1020400038480088FF280ADC9DF8002035490888B8
:1020500000F10101334B198033490A5403E04FF07A
:1020600003002F49087001F0E6F800BF00BF2046CA
:1020700038BD10B54FF000042E48007810B101288B
:1020800029D104E00021012000F0E0FF23E02848EE
:10209000008888B125490968087801F06FF823485D
:1020A000006800F101002149086021480088A0F182
:1020B00001001F4908800DE0032000F0A6FF044640
:1020C0004FF000014FF0010000F0C0FF4FF00000A2
:1020D0001849087000BF00BF204610BD10B54FF072
:1020E00000040F48007820B1022807D003280BD144
:1020F00009E0002000F089FF044606E0012000F01E
:1021000084FF044601E000E000BF00BF01F0A7F833
:102110004FF0010002490870204610BDA07F170053
:102120001900002022000020F80000201C000020E0
:1021300020000020180000202DE9F04180460C46C8
:1021400015461E464FF0000700F07EFF4FF00A00D4
:10215000F749087033464FF007022946204600F041
:1021600099FF012802D04FF0030707E044F62060F2
:1021700001F03EF8012801D04FF0030700F062FFA4
:102180003846BDE8F08110B500F05EFF0021012067
:1021900000F05CFF4FF00000E649087000F052FFCD
:1021A000002000F032FF10BD10B500F04DFF0021FF
:1021B000084600F04BFF01F052F800F043FF10BD5D
:1021C00010B502464FF0000004E012F8014B04EB9A
:1021D0000003D8B20B00A1F10104A1B2F5D1C0F106
:1021E0000003D8B210BD2DE9F04104460D46164655
:1021F0004FF0000700F028FFCF480088032815DBC8
:10220000CD480188CD480068FFF7DAFF70B9CB48A8
:10221000006800782070C8480088A0F10200308073
:10222000C648006800F10100286001E04FF0050792
:1022300000F008FF3846BDE8F0812DE9F041044682
:102240000D4616464FF0000800F0FEFEB948007833
:1022500040BBA5F10100BA4908604FF00100B9493F
:102260000880B74800680470084600883044088039
:1022700008460188B2480068FFF7A2FF0746B14947
:10228000088800F10101AF4A1180AC4909680F5478
:102290004FF00100AC49087001464FF0000000F01B
:1022A000D5FE01E04FF0050800F0CCFE4046BDE849
:1022B000F0810146302905DB392903DCA1F130002A
:1022C000C0B27047412905DB462903DCA1F1370084
:1022D000C0B2F6E7FF20F4E738B54FF000056846D6
:1022E00000F05BFF9348007800287ED0012802D0E0
:1022F000022850D150E000F09EFF9DF800003A28DF
:1023000006D14FF00000914908708B49088042E0E7
:102310009DF800000D2804D14FF002008549087097
:1023200039E09DF80000FFF7C4FF044687480078B5
:1023300010B101282ED118E07F480088FF280DDC5D
:102340004FEA04704FEA10607C4909687A4A1288A3
:1023500088544FF001007D4908701BE04FF00000E9
:102360007449087000F07BFF14E074490968724AF0
:10237000128801EB0200017841EA040101706E4805
:10238000008800F101006C4908804FF000006F499F
:10239000087000BF00BF39E09DF80000644909786B
:1023A00088420BD100F05BFF4FF0000061490870DC
:1023B0004FF0010000F029FE054615E09DF80000F1
:1023C0003A280DD14FF00000604908705A49088042
:1023D0004FF001005749087000F02DFF04E004E0C1
:1023E0004FF000005349087010E09DF800003A28B3
:1023F0000BD100F020FF4FF000004F4908805349F7
:1024000008704FF001004B49087000BF00BF28461C
:1024100038BD0146092903DC01F13000C0B2704724
:102420000A2905DB0F2903DC01F13700C0B2F6E70A
:102430003020F4E770B54FF00005434800780528D8
:1024400072D2DFE800F06C03114F58004FF03A04ED
:10245000204600F093FE4FF002003B4908704FF019
:1024600000003A4908705FE036480088002831DDF6
:102470003648007810B101282BD10EE030490968A8
:1024800009780811FFF7C5FF0446204600F076FEE4
:102490004FF001002D4908701BE0294909680978AF
:1024A00001F00F00FFF7B5FF0446204600F066FE7E
:1024B0002348006800F10100214908604FF0000046
:1024C000224908701F480088A0F101001D490880BA
:1024D00000BF06E00D2000F051FE4FF003001A4946
:1024E000087021E01248007800F048FE4FF0040028
:1024F0001549087018E04FF00000134908704FF0BC
:10250000030000F082FD05464FF000014FF001008E
:1025100000F09CFD4FF000000B49087004E0002122
:10252000012000F093FD00BF00BF284670BD0000F1
:1025300037000020290000202A000020240000206D
:102540003000002034000020280000202C00002053
:1025500010B509480078012802D0022806D100E011
:1025600000BF4FF000000449087000E000BF00BF4A
:1025700000F075FE002010BD290000202DE9F05F5D
:1025800006460D464FF0000B2888052852D170787A
:102590004FEA0029B07840EA090909F101001FFA61
:1025A00080F9F0784FEA0024307940EA0404012CE5
:1025B0003DDBB4F5FA6F3ADA3746584628804FF0DB
:1025C000010007F8010B288800F10100288014F0B1
:1025D000070F0BD020464FEAE47104EB51714FEA2C
:1025E000E10101F1010101F0FF0806E020464FEA98
:1025F000E47104EB5171C1F3C70807F8018B288817
:1026000000F1010028804FF0000322464946384679
:10261000FDF726FE8246BAF1000F04D0504600F0C6
:1026200010FB834608E028884044288004E04FF0EF
:10263000030B01E04FF0030B5846BDE8F09F2DE976
:10264000F84304460F464FF00008388805282FD17C
:1026500060784FEA0025A07840EA050505F1010001
:1026600085B2207908BBE078FF2801D0E078E0B996
:102670004FF000008DF80100E078FF2804D14FF002
:1026800001008DF8000003E04FF000008DF800001D
:1026900001231A4629466846FDF7E2FD06464EB17B
:1026A000304600F0CEFA804604E04FF0030801E027
:1026B0004FF003084046BDE8F8832DE9F05F05467A
:1026C0000E464FF0000B3088052843DD68784FEA4E
:1026D0000027A87840EA070707F1010087B2E878E9
:1026E0004FEA0024287940EA040495F805A014F084
:1026F000070F0BD020464FEAE47104EB51714FEA0B
:10270000E10101F1010101F0FF0806E020464FEA76
:10271000E47104EB5171C1F3C708012C17DBB4F568
:10272000F66F14DCD04512D1012322463946A81D8C
:10273000FDF796FD8146B9F1000F04D0484600F040
:1027400080FA834608E04FF00500308004E04FF047
:10275000030B01E04FF0030B5846BDE8F09F2DE955
:10276000F05F06460D464FF0000B2888052850D133
:1027700070784FEA0029B07840EA090909F10100B0
:102780001FFA80F9F0784FEA0024307940EA040417
:10279000012C3BDBB4F5FA6F38DA3746584628800F
:1027A0004FF0020007F8010B288800F10100288093
:1027B00014F0070F0BD020464FEAE47104EB51717F
:1027C0004FEAE10101F1010101F0FF0806E02046B6
:1027D0004FEAE47104EB5171C1F3C70807F8018BAC
:1027E000288800F101002880224649463846FDF736
:1027F00053FD8246BAF1000F04D0504600F021FA92
:10280000834608E028884044288004E04FF0030B0A
:1028100001E04FF0030B5846BDE8F09F2DE9F04171
:1028200004460F464FF000083888052817D1607815
:102830004FEA0025A07840EA050505F1010085B2C0
:102840004FF001031A46294604F10300FDF7EBFCA3
:10285000064636B1304600F0F4F9804601E04FF00C
:1028600003084046BDE8F0812DE9F04704460E46D6
:102870004FF0000A308806282EDB60784FEA0027E8
:10288000A07840EA070707F1010087B2E0784FEA35
:102890000025207940EA050594F80590012D18DB04
:1028A000782D16DC6806000E484512D101232A4611
:1028B0003946A01DFDF7B7FC8046B8F1000F04D0E3
:1028C000404600F0BEF9824608E04FF00500308037
:1028D00004E04FF0030A01E04FF0030A5046BDE860
:1028E000F0872DE9F04705460C464FF0000A208896
:1028F00005283DD168784FEA0028A87840EA080802
:1029000008F101001FFA80F8E8784FEA00262E79D6
:10291000012E2ADB7D2E28DC2F46504620804FF0EA
:10292000030007F8010B208800F1010020804FEA26
:1029300046604FEA106007F8010B208800F10100A3
:1029400020805346324641463846FDF76CFC8146AE
:10295000B9F1000F04D0484600F073F9824609E04F
:10296000208800EB4600208004E04FF0030A01E0DD
:102970004FF0030A5046BDE8F0872DE9FC5F04469E
:102980000D464FF00000009028880A286ADB607826
:102990004FEA002AA07840EA0A0A0AF101001FFA69
:1029A00080FAE0784FEA0026207940EA060660794E
:1029B0004FEA002BA07940EA0B0B0BF101001FFA44
:1029C00080FBE0794FEA0027207A40EA0707607A27
:1029D0000190012E43DB7D2E41DC012F3FDB792F5F
:1029E0003DDC79000198814239D101233A465946AC
:1029F00004F10A00FDF717FC8146B9F1000F26D15A
:102A0000A0464FF0000028804FF0170008F8010B97
:102A1000288800F1010028804FEA46604FEA1060E4
:102A200008F8010B288800F1010028804FF000030E
:102A3000324651464046FDF7F6FB8146B9F1000F9C
:102A400005D128884FF0020101FB06002880B9F16A
:102A5000000F07D0484600F0F4F8009002E04FF075
:102A6000030000900098BDE8FC9F2DE9F047054663
:102A70000C464FF0000A208805283ED168784FEABE
:102A80000028A87840EA080808F101001FFA80F839
:102A9000E8784FEA0026287940EA0606012E29DB6D
:102AA0007D2E27DA2F46504620804FF0040007F88D
:102AB000010B208800F1010020804FEA46604FEAB8
:102AC000106007F8010B208800F1010020803246D9
:102AD00041463846FDF78BFB8146B9F1000F04D023
:102AE000484600F0AEF8824609E0208800EB460038
:102AF000208004E04FF0030A01E04FF0030A504643
:102B0000BDE8F0872DE9F04105460E4617461C4604
:102B10004FF0000804F1020020282ADA404620493C
:102B2000088008460188008800F101001C4A1080D6
:102B30001C48455416B14FF0FF0201E04FF000026F
:102B400017480188008800F10100154B18801548CE
:102B50004254002C0FDD01461A461288881822467E
:102B6000394600F08FFB0E48008820440C4908804D
:102B700001E04FF004084046BDE8F08170B505461D
:102B80000C4607480288074905F1010000F07AFB6E
:102B90000348008800F1010020804FF0000070BD64
:102BA00038000020F80100202DE9F04304461546C6
:102BB0001F464FEAD100A1EBC0081FFA88FC07FAB4
:102BC0000CF81FFA88F74FF0010808FA05F8A8F189
:102BD00001081FFA88F6A1EBC00806FA08F81FFAE8
:102BE00088F6225C00F1010814F8088042EA082205
:102BF00022EA060848EA070222544FEA222900F195
:102C0000010804F80890BDE8F083F0B503460C46CF
:102C100015464FEAD402A4EBC20087B24FF0010080
:102C200000FA05F0A0F1010086B2995C02F1010002
:102C3000185C41EA002141FA07F101EA0601C8B235
:102C4000F0BD014621B1012905D0072909D105E0D0
:102C50004FF0000008E04FF0020005E04FF00600E2
:102C600002E04FF0040000BF00BF70472DE9F047BD
:102C700005460C4616461F46DDF820904FF000082A
:102C80001CB1012C01DBF72C02DD4FF002085CE0E7
:102C9000BB48047015B1012D44D121E0B948BA49AF
:102CA0000860BA48BA490860BA48BB490860BB48DE
:102CB000BB4908604FF00000BA490860BA48BB49F8
:102CC0000860BB48BB490860BB48BC4908604B462C
:102CD0003A463146AA480078FFF7D0F8804624E00B
:102CE000B748A9490860B748A9490860B648AA4941
:102CF0000860B648AA4908604FF00000A94908607A
:102D0000B348AA490860B348AA490860B248AB4929
:102D100008604B463A46314699480078FFF70CFA6E
:102D2000804602E04FF0020800BF00BFB8F1000F7C
:102D30000BD100F063F910B94FF0030805E0A74884
:102D400005704FF00100A64908704046BDE8F087C5
:102D50002DE9F04105460E46002D42DD7F2D40DC79
:102D600000F072F916B34FF0000413E09D4800EB39
:102D7000C400406828B19B4800EBC4004068B042E2
:102D800006D1984800F8345000EBC400466003E0D8
:102D900004F10104102CE9DB00BF102C02D04FF02D
:102DA000000001E04FF00400074617E04FF0000478
:102DB0000FE08C4810F83400A84208D14FF0000012
:102DC000884901F8340001EBC401486003E004F1D4
:102DD0000104102CEDDB00BF4FF0000700F032F9CA
:102DE00001E04FF002073846BDE8F08110B54FF022
:102DF00000047B480078012806D16A48006828B1A1
:102E000068480068804701E04FF00604204610BD86
:102E100010B54FF0000472480078012806D15A48D6
:102E20000068804720466E49087001E04FF00604B4
:102E3000204610BD10B56A48007848B9544800686B
:102E400080474FF00100664908704FF0000408E029
:102E500063480078012802D14FF0000401E04FF0F0
:102E60000604204610BD38B54FF000055C480078D8
:102E700008B1062038BD684600F0D1F801287DD1A0
:102E80009DF8000030B1012805D0022818D0032891
:102E900073D171E071E0544A54495548404B1B6866
:102EA000984705465DB95248007835490978884207
:102EB00002D04F48007810B9022000F0A6F85CE07C
:102EC0004A48006800784B4908704FF001004A49B1
:102ED00008704FF0000418E0424810F8340000B9C0
:102EE00015E0404810F834004249097888420AD178
:102EF0003C4800EBC4003C4942683C4800689047AD
:102F00003D49087003E004F10104102CE4DB00BF2C
:102F10003748007870B338480078E0B14FF00000CF
:102F2000314908803348007840F080012E480288FB
:102F3000008800F101002C4B18802C480068815457
:102F40002D48027818460188008800F10100188099
:102F500026480068425421480078012800D100BF6B
:102F60002148028821480168054800780A4B1B68FF
:102F70009847054601E001E000BF00BF002079E767
:102F8000C9000020D51E0008D0000020F71E000850
:102F9000D4000020631F0008CC0000200F1F000891
:102FA000D8000020DC000020ED1F0008E000002019
:102FB00073200008E4000020DD200008E800002065
:102FC00087210008A92100083B220008E72100080A
:102FD000D92200083524000851250008CA00002025
:102FE0003C00002040000020C6000020C00000205F
:102FF000C4000020C5000020C80000204FF00000E1
:103000000E4908704FF00100704701464FF0010073
:103010000A4A10700A4801704FF0010070470146DB
:103020004FF00000054A12783AB1054A12780A704A
:103030000246024B1A704FF001007047F500002065
:10304000F400002062B6704772B6704770B505464E
:103050000C46FFF7F9FF35B1012240F225516048D7
:10306000FEF7B1FC05E0002240F225515C48FEF776
:10307000AAFC34B1012240F227715948FEF7A3FCA3
:1030800005E0002240F227715548FEF79CFCFFF74F
:10309000D9FF70BD2DE9F04186B080460D46174638
:1030A0001C464FF00106314644F22500FDF781FC35
:1030B0004FF018008DF817004FF40070ADF81400B1
:1030C0004FF003008DF8160005A94648FDF787F973
:1030D0004FF048008DF817004FF48060ADF81400F1
:1030E0004FF003008DF8160005A93E48FDF777F96B
:1030F000019524B1012C07D0022C0FD109E04FF02B
:103100000000ADF80C0009E04FF4C060ADF80C0011
:1031100004E04FF48060ADF80C0000BF00BF072F43
:103120000CD0082F0BD124B94FF00000ADF80800E7
:1031300003E04FF48050ADF8080003E002E04FF0E8
:10314000000600BF00BFAEB1FFF77EFF4FF00000EA
:10315000ADF80A00ADF810004FF00C00ADF80E000D
:1031600001A91F48FEF79AFB01211D48FEF71EFC2E
:10317000FFF768FF304606B0BDE8F08110B50446A1
:1031800021461748FEF790FC00BF80211448FEF747
:10319000E9FC0028F9D0012010BD10B5044640F22A
:1031A00025510F48FEF7EAFC0D48FEF781FC207020
:1031B000012010BD10B540F227710948FEF7E2FC6E
:1031C00018B109480068804708E040F225510448DA
:1031D000FEF7D8FC10B105480068804710BD00001C
:1031E0000038014000080140E4000020E000002019
:1031F0003EB504464FF001010846FDF7E9FB4FF4E8
:103200007A7004FB00F080B2ADF804004FF0370094
:10321000ADF800004FF00000ADF80600ADF8020078
:1032200069464FF08040FDF7A7FC01218807FEF7B3
:10323000CFFA01203EBD10B501218807FEF7C8FA7C
:1032400000214FF08040FEF78FFA012211469007CF
:10325000FDF787FF01218807FDF767FF10BD10B557
:10326000002201218807FDF77CFF00214FF08040FC
:10327000FDF75BFF10BD10B501480068804710BD29
:10328000E800002040EA01039B0703D009E008C9D9
:10329000121F08C0042AFAD203E011F8013B00F81B
:1032A000013B521EF9D27047064C074D06E0E0681C
:1032B00040F0010394E8070098471034AC42F6D37D
:1032C000FCF73AFFEC3400080C35000802E008C8AF
:1032D000121F08C1002AFAD170477047002001E090
:1032E00001C1121F002AFBD1704700C1814001C0FB
:1032F000804101C0804100C1814001C0804100C1C6
:10330000814000C1814001C0804101C0804100C1B5
:10331000814000C1814001C0804100C1814001C0A5
:10332000804101C0804100C1814001C0804100C195
:10333000814000C1814001C0804100C1814001C085
:10334000804101C0804100C1814000C1814001C075
:10335000804101C0804100C1814001C0804100C165
:10336000814000C1814001C0804101C0804100C155
:10337000814000C1814001C0804100C1814001C045
:10338000804101C0804100C1814000C1814001C035
:10339000804101C0804100C1814001C0804100C125
:1033A000814000C1814001C0804100C1814001C015
:1033B000804101C0804100C1814001C0804100C105
:1033C000814000C1814001C0804101C0804100C1F5
:1033D000814000C1814001C0804100C1814001C0E5
:1033E000804101C0804100C1814000C0C101C303D0
:1033F00002C2C60607C705C5C404CC0C0DCD0FCF4D
:10340000CE0E0ACACB0BC90908C8D81819D91BDBBC
:10341000DA1A1EDEDF1FDD1D1CDC14D4D515D7170C
:1034200016D6D21213D311D1D010F03031F133F3BC
:10343000F23236F6F737F53534F43CFCFD3DFF3F0C
:103440003EFEFA3A3BFB39F9F83828E8E929EB2B3C
:103450002AEAEE2E2FEF2DEDEC2CE42425E527E7CC
:10346000E62622E2E323E12120E0A06061A163A33C
:10347000A26266A6A767A56564A46CACAD6DAF6FCC
:103480006EAEAA6A6BAB69A9A86878B8B979BB7B3C
:103490007ABABE7E7FBF7DBDBC7CB47475B577B78C
:1034A000B67672B2B373B17170B0509091519353BC
:1034B000529296565797559594549C5C5D9D5F9F8C
:1034C0009E5E5A9A9B5B99595898884849894B8BBC
:1034D0008A4A4E8E8F4F8D4D4C8C4484854587474C
:1034E0004686824243834181804000000C350008BB
:1034F00000000020F8000000CC320008043600086C
:10350000F800002020030000DC320008000000006A
:103510000000000001020304010203040607080979
:103520000204060800000000000000000000000087
:10353000F800002000000000000000000000000073
:103540000000000000000000020000001100000068
:103550007D2B0008040000006B2A00080300000017
:10356000E328000810000000692800080600000099
:103570001D280008170000007B290008010000003A
:103580007D250008050000003F2600080F00000010
:10359000BB260008020000005F27000800000000B2
:1035A000000000000000000000000000000000001B
:1035B000000000000000000000000000000000000B
:1035C00000000000000000000000000000000000FB
:1035D00000000000000000000000000000000000EB
:1035E00000000000000000000000000000000000DB
:1035F00000000000000000000000000000000000CB
:0436000000000000C6
:0400000508000147A7
:00000001FF
