:020000040800F2
:1000000000040020470100087F010008810100086A
:1000100085010008890100088D010008000000002A
:100020000000000000000000000000009101000836
:1000300093010008000000009501000897010008E6
:1000400067010008670100086701000867010008F0
:1000500067010008670100086701000867010008E0
:1000600067010008670100086701000867010008D0
:1000700067010008670100086701000867010008C0
:1000800067010008670100086701000867010008B0
:1000900067010008670100086701000867010008A0
:1000A0006701000867010008670100086701000890
:1000B0006701000867010008670100086701000880
:1000C0006701000867010008670100086701000870
:1000D0006701000867010008670100086701000860
:1000E0006701000867010008670100086701000850
:1000F0006701000867010008670100086701000840
:10010000670100086701000867010008670100082F
:10011000670100086701000867010008670100081F
:10012000670100086701000867010008670100080F
:10013000DFF80CD000F0C2F8004800477501000855
:1001400000020020704708488047084981F308886A
:1001500007480047FEE7FEE7FEE7FEE7FEE7FEE7AB
:10016000FEE7FEE7FEE7FEE745010008000200208B
:100170003101000810B500F076F800BFFEE77047C7
:1001800000BFFEE700BFFEE700BFFEE700BFFEE7DF
:10019000704770477047704700200021434A12683B
:1001A00042F48032414B1A6000BF404A126802F4A8
:1001B0000031401C11B9B0F5A06FF6D13B4A12686E
:1001C00012F4003F01D0012100E00021012943D1B8
:1001D000374A126842F01002354B1A601A4612680C
:1001E00022F003021A601A46126842F002021A60F4
:1001F0002E4A52682D4B5A601A4652685A601A4667
:10020000526842F480625A601A46526822F47C12A4
:100210005A601A46526842F4E8125A601A46126846
:1002200042F080721A6000BF204A126812F0007F0C
:10023000FAD01E4A526822F003021C4B5A601A463A
:10024000526842F002025A6000BF184A526802F037
:100250000C02082AF9D101E000BFFEE7704710B593
:10026000FFF79AFF10BD10B51048006840F001007C
:100270000E490860084640680E4908400B4948602E
:10028000084600680C4908400849086008460068AC
:1002900020F4802008600846406820F4FE00486092
:1002A00000208860FFF7DBFF10BD00000010024057
:1002B000002002400000FFF8FFFFF6FE064C074D4D
:1002C00006E0E06840F0010394E807009847103426
:1002D000AC42F6D3FFF730FF00030008100300081C
:1002E00002E008C8121F08C1002AFAD170477047FF
:1002F000002001E001C1121F002AFBD1704700005D
:10030000100300080000002000020000F0020008B6
:0400000508000147A7
:00000001FF
